:0400000061EF00F0BC
:10000800FACFC4F0FBCFC5F0E9CFC6F066ED0BF030
:10001800D8CF1FF0E8CF20F0E0CF21F0FACF22F0C0
:10002800FBCF23F0E9CF24F0EACF25F0E1CF26F08B
:10003800E2CF27F0D9CF28F0DACF29F0F3CF2AF092
:10004800F4CF2BF0F6CF2CF0F7CF2DF0F8CF2EF021
:10005800F5CF2FF09EA001D001D004D09E9007ECE0
:100068000EF000D09EAA01D001D004D09E9A67EC71
:1000780009F000D02FC0F5FF2EC0F8FF2DC0F7FF04
:100088002CC0F6FF2BC0F4FF2AC0F3FF29C0DAFF0B
:1000980028C0D9FF27C0E2FF26C0E1FF25C0EAFF3C
:1000A80024C0E9FF23C0FBFF22C0FAFF21C0E0FF04
:1000B80020C0E8FF1FC0D8FF1000BDEF0FF00001FF
:1000C800B96F000E00010001C36F0001B9510001B2
:1000D800B96F000E00010001BE6F0001B9510001A7
:1000E800B96F000E00010001C26F0001B951000193
:1000F800B96F000E00010001C16F0001B951000184
:10010800B96F000E00010001BF6F0001B951C6AC04
:1001180001D001D02AD0C69C000120EE0CF00001CD
:100128006051D92600016151DA22050EDF6E000107
:10013800B96F010E00010001BF6F0001B951000144
:1001480020EE0EF000016051D92600016151DA223B
:10015800DF2A000120EE0DF000016051D9260001D0
:100168006151DA22040EDF6E00D0C7A001D001D0A1
:100178000BD0C9CFC0F00001B96F010E000100011A
:10018800C36F0001B95100D000010001BF6701D061
:1001980001D051D239D238D2C7A601D001D04BD222
:1001A800C3C099F00001FAEC08F0000120EE0CF051
:1001B80000016051D92600016151DA22080EDF6280
:1001C80001D001D038D20001B96F000E0001000142
:1001D800C36F0001B9510001B96F010E00010001A0
:1001E800C16F0001B95127D226D225D2C7A801D0A4
:1001F80001D040D0000120EE0BF000016051D9265B
:1002080000016151DA22DF2A00010001C351D8B48C
:1002180001D001D023D0C7BA01D001D009D0000144
:10022800B96F010E00010001C26F0001B95116D06B
:10023800000120EE0EF000016051D9260001615145
:10024800DA22DF2A000120EE0DF000016051D926E4
:1002580000016151DA22060EDF6E00D0000120EEA7
:100268000CF000016051D92600016151DA22050E17
:10027800DF6EE1D100010001C351D8B401D001D033
:10028800DAD1000120EE0BF000016051D9260001FF
:100298006151DA22DF2AC7BA01D001D02DD0C7B404
:1002A80001D001D00CD0000120EE0CF0000160510B
:1002B800D92600016151DA22070EDF6EBCD1000198
:1002C80020EE0CF000016051D92600016151DA22BC
:1002D800080EDF6E0001B96F010E00010001C16F49
:1002E8000001B9510001B96F000E00010001C36F90
:1002F8000001B951A0D19FD1000120EE0EF00001FC
:100308006051D92600016151DA22DF2A000120EE6E
:100318000CF000016051D92600016151DA22050E66
:10032800DF6E000120EE0DF000016051D9260001BA
:100338006151DA22060EDF6E7ED17DD17CD17BD170
:10034800000120EE1AF000016051D9260001615128
:10035800DA22DF500001B96F000120EE19F0000128
:100368006051D92600016151DA22DF500001B95DE0
:10037800D8B001D001D032D0000120EE1AF000012F
:100388006051D92600016151DA22DF500001B96FAE
:100398000001B951010D0F0EF326000EF422F3509F
:1003A800000100016025D96EF450000100016121AF
:1003B800DA6EDF50C96E000120EE1AF000016051BC
:1003C800D92600016151DA22DF2A0001B96F010E36
:1003D80000010001BE6F0001B9512DD1000120EECE
:1003E8000CF000016051D92600016151DA22050E96
:1003F800DF6E21D120D1C7A801D001D07BD0000168
:1004080020EE0BF000016051D92600016151DA227B
:10041800DF2A00010001C351D8B401D001D055D062
:10042800C7AA01D001D02FD0000120EE0AF00001A8
:100438006051D92600016151DA22DF500001B96FFD
:100448000001B951010DF350000100016025D96E7A
:10045800F450000100016121DA6E0001C0C0DFFF25
:10046800000120EE0AF000016051D9260001615117
:10047800DA22DF2A0001B96F010E00010001C26F04
:100488000001B9512BD0000120EE0EF0000160519F
:10049800D92600016151DA22DF2A000120EE0DF091
:1004A80000016051D92600016151DA22060EDF6E83
:1004B800000120EE0CF000016051D92600016151C5
:1004C800DA22050EDF6E0AD009D00001B96F010EDD
:1004D80000010001C26F0001B95100D0000120EEF7
:1004E8000CF000016051D92600016151DA22050E95
:1004F800DF6EA1D000010001C351D8B401D001D0F2
:100508009AD0000120EE0BF000016051D9260001BD
:100518006151DA22DF2AC7AA01D001D027D0000111
:1005280020EE0AF000016051D92600016151DA225B
:10053800DF500001B96F0001B951010DF3500001FE
:1005480000016025D96EF450000100016121DA6EC6
:100558000001C0C0DFFF000120EE0AF00001605179
:10056800D92600016151DA22DF2A65D0C7A401D05B
:1005780001D024D0000120EE0CF000016051D926F2
:1005880000016151DA22080EDF6E0001B96F010E19
:1005980000010001C26F0001B9510001B96F010EDD
:1005A80000010001C16F0001B9510001B96F000ECF
:1005B80000010001C36F0001B9513DD0000120EED8
:1005C8000EF000016051D92600016151DA22DF2ABC
:1005D800000120EE0DF000016051D92600016151A3
:1005E800DA22060EDF6E000120EE0CF000016051E9
:1005F800D92600016151DA22050EDF6E1CD01BD00E
:100608001AD019D018D017D0000120EE0CF0000134
:100618006051D92600016151DA22DF50050AD8B4A9
:10062800BBD5030AD8B4E2D5010AD8B4E4D60F0A78
:10063800D8B486D600D000010001C36701D001D02C
:1006480007D000010001BE51D8B401D001D007D0B5
:10065800C6B801D001D003D0C68801D000D00001AF
:1006680020EE0AF000016051D92600016151DA221A
:10067800080EDF6401D001D027D000010001C26755
:1006880001D001D021D0000120EE0CF00001605112
:10069800D92600016151DA22050EDF6E000120EE35
:1006A8000EF000016051D92600016151DA22DF2ADB
:1006B800000120EE0DF000016051D92600016151C2
:1006C800DA22070EDF6E00D000010001C251D8B453
:1006D80001D001D050D0000120EE0BF00001605194
:1006E800D92600016151DA22000110EE0AF000015A
:1006F8006051E12600016151E222E7500001B96F23
:100708000001B951010DF350000100016025E16EAF
:10071800F450000100016121E26EDFCFE7FF000124
:1007280020EE0AF000016051D92600016151DA2259
:10073800DF500001B96F0001B92900010001AF6F56
:100748000001BA6F280E00010001B06F0001BA5114
:1007580060C0B1F061C0B2F0000192EC0FF000018E
:1007680020EE0AF000016051D92600016151DA2219
:10077800000EDF6E5ED0000120EE0EF00001605129
:10078800D92600016151DA22DF50D8B401D001D056
:1007980050D0000120EE0EF000016051D926000172
:1007A8006151DA22DF5000010001BB6F000120EE29
:1007B8000DF000016051D92600016151DA22DF50A5
:1007C80000010001BC6F000120EE0BF00001605138
:1007D800D92600016151DA22DF5000010001BD6F06
:1007E8000001B96F030E00010001AF6F0001B9519C
:1007F8000001BA6F290E00010001B06F0001BA5163
:100808000001000E00010001B26F0001BB0E0001E3
:10081800B16F000192EC0FF0000120EE0EF0000124
:100828006051D92600016151DA22000EDF6E01D035
:1008380000D000010001C151D8B401D001D00BD0C3
:10084800F0EC0BF00001B96F000E00010001C16F60
:100858000001B95100D01200FC0ED36E9B8C02012E
:10086800020E01010101CF6F02011C0E0101CE6FC2
:100878000101E2EC0FF00201020E01010101CF6F4C
:1008880002011A0E0101CE6F01010DEC10F0BAEC55
:100898000CF0000E936E000E8A6E0101F36F960E37
:1008A80001010101CE6F0101F3510101A8EC0FF024
:1008B8000101F36FF50E01010101CE6F0101F35142
:1008C80001017AEC0EF09F909F9A9F860101F36FC9
:1008D8009E0E01010101D46F0101F351010175EC74
:1008E8000AF09D860101F36F6C0E01010101CE6FC4
:1008F8000101F351000E01010101D06F190E010130
:10090800CF6F0101C2EC09F036EC10F094869488A0
:10091800C78E280EC66E280EC86EC58000D0C5B01A
:1009280001D001D0FCD700D0A00EC96E00D0C7B04E
:1009380001D001D0FCD702D001D000D0C5501F0B88
:10094800D8A401D001D0FAD7C7B401D001D0F6D7C6
:1009580000D0870EC96E00D0C7B001D001D0FCD737
:1009680002D001D000D0C5501F0BD8A401D001D0AF
:10097800FAD7C7B401D001D0F6D7C58400D0C5B422
:1009880001D001D0FCD7C58000D0C5B001D001D0BE
:10099800FCD700D0A10EC96E00D0C7B001D001D0DD
:1009A800FCD702D001D000D0C5501F0BD8A401D06D
:1009B80001D0FAD7C7B401D001D0F6D7C58600D088
:1009C800C7A001D001D0FCD7C9CF09F201D000D00F
:1009D800C5501F0BD8A401D001D0FAD7C7B401D095
:1009E80001D0F6D7C58AC58800D0C5B801D001D0D6
:1009F800FCD7C58400D0C5B401D001D0FCD701D044
:100A080000D08AEC08F00101F36F0A0E0101010120
:100A1800E66F0101F3510201020E01010101E86FC5
:100A28000201220E0101E76F0201020E010101011C
:100A3800EA6F02010E0E0101E96F010106EC0FF0E9
:100A480002010201216F0201020121AF01D001D090
:100A580045D055D054D053D041D00201020E0101E7
:100A68000101CF6F02010C0E0101CE6F02010101DD
:100A780022C2D0F101010101D16B02010201215111
:100A880001010101D26F0101D36B0101D2BFD3076C
:100A98000201020E01010101D56F02010E0E0101D2
:100AA800D46F010131EC10F02AD00EC208F227D021
:100AB8000201010119C2EBF101010101EC6B020114
:100AC800020E01010101EE6F0201000E0101ED6F3E
:100AD8000101ACEC0BF013D012D011D002010201CD
:100AE80022510A0AD8B4B9D7220AD8B4DED7010AE3
:100AF800D8B4DBD7030AD8B4DBD701D000D00101C2
:100B0800F36F0A0E01010101E66F0101F3510201C1
:100B1800020E01010101E86F0201220E0101E76FD7
:100B28000201020E01010101EA6F02010E0E01012C
:100B3800E96F01011EEC0FF002010201216F0201B1
:100B4800020121AF01D001D086D05BD75AD759D73F
:100B580082D00201020E01010101E96F02011A0EA1
:100B68000101E86F0201010122C2EAF1010101015C
:100B7800EB6B02010201215101010101EC6F01013E
:100B8800ED6B0101ECBFED070201020E010101014D
:100B9800EF6F02010E0E0101EE6F010134EC0CF053
:100BA80030D70EC211F20101F36F030E02010201E8
:100BB8000E6F0101F3510101F36F010E02010201F1
:100BC8000F6F0101F3510101F36F030E01010101E0
:100BD800E46F0101F3510101F46F320E01010101CB
:100BE800E56F0101F4510201020E01010101E76FF5
:100BF80002010E0E0101E66F010166EC0FF001D053
:100C080000D00201020E01010101CF6F02010A0E9C
:100C18000101CE6F0201010122C2D0F101010101DF
:100C2800D16B02010201215101010101D26F0101C1
:100C3800D36B0101D2BFD3070201020E01010101EA
:100C4800D56F02010E0E0101D46F01012FEC0EF0D9
:100C5800D8D6D7D6D6D60201020122510B0AD8B46B
:100C680078D7150AD8B4CDD7010AD8B4CAD72D0A6F
:100C7800D8B497D7C6D6C5D6C4D6C3D661EF00F0C8
:100C8800010120EE35F00101D851D9260101D951D1
:100C9800DA22DF5001010101E16F01010101E15197
:100CA8000D0DF35001010101D82501010101E46F87
:100CB800F45001010101D9210101E56F010EE4C1E0
:100CC800D9FFE5C1DAFFDF6201D001D075D001019B
:100CD80020EE01F00101E451D9260101E551DA22A3
:100CE800DF5001010101DA6101D001D003D0FD0E0E
:100CF80066D065D0010120EE01F00101E451D9264A
:100D08000101E551DA22DF500101DF6F0101DF51F6
:100D180001010101E26F0101E36BDDC1CEF1DEC12A
:100D2800CFF1030E01010101E4250101DF6F000E7F
:100D380001010101E5210101E06FDFC1D0F1E0C14E
:100D4800D1F1E2C1D2F1E3C1D3F10101B1EC0DF06F
:100D5800010120EE35F00101D851D9260101D95100
:100D6800DA22010110EE35F00101D851E126010126
:100D7800D951E222E7500101DF6F0101DF29030B9E
:100D8800DF6E010120EE02F00101E451D9260101D4
:100D9800E551DA22DBC1E1FFDCC1E2FFDFCFE7FF8B
:100DA800E4C1D9FFE5C1DAFF000EDF6E01010101E0
:100DB800E25105D004D003D0FC0E01D000D01200BF
:100DC800000120EE35F00001A351D9260001A451FD
:100DD800DA22DF5000010001AC6F00010001AC51C4
:100DE8000D0DF35000010001A32500010001AF6FB4
:100DF800F45000010001A4210001B06F010EAFC042
:100E0800D9FFB0C0DAFFDF6201D001D075D0000190
:100E180020EE01F00001AF51D9260001B051DA22CD
:100E2800DF5000010001A56101D001D003D0FD0E03
:100E380066D065D0000120EE01F00001AF51D9263F
:100E48000001B051DA22DF500001AA6F0001AA5157
:100E580000010001AD6F0001AE6BA8C099F0A9C0F8
:100E68009AF0030E00010001AF250001AA6F000EE1
:100E780000010001B0210001AB6FAAC09BF0ABC01C
:100E88009CF0ADC09DF0AEC09EF00001DCEC0DF012
:100E9800000120EE35F00001A351D9260001A4512C
:100EA800DA22000110EE35F00001A351E12600011D
:100EB800A451E222E7500001AA6F0001AA29030BFE
:100EC800DF6E000120EE02F00001AF51D9260001CB
:100ED800B051DA22A6C0E1FFA7C0E2FFDFCFE7FFEB
:100EE800AFC0D9FFB0C0DAFF000EDF6E000100010D
:100EF800AD5105D004D003D0FC0E01D000D01200B3
:100F080001010101DAC1DFF101010101E06B010119
:100F180020EE34F00101D851D9260101D951DA2245
:100F2800DF5001010101E16F01010101E1510D0DE6
:100F3800F35001010101D82501010101E26FF450CC
:100F480001010101D9210101E36FE2C1D9FFE3C128
:100F5800DAFFDF50D8B401D001D003D0FF0E52D051
:100F680051D0010120EE01F00101E251D926010121
:100F7800E351DA220101DAC1DFFF010120EE02F0BC
:100F88000101E251D9260101E351DA220101DBC155
:100F9800DFFF030E01010101E22501010101CE6F0E
:100FA800000E01010101E3210101CF6FDCC1D0F185
:100FB800DDC1D1F1DFC1D2F1E0C1D3F10101B1EC62
:100FC8000DF0010120EE34F00101D851D9260101BC
:100FD800D951DA22010110EE34F00101D851E1268D
:100FE8000101D951E222E7500101DE6F0101DE293A
:100FF800030BDF6EE2C1D9FFE3C1DAFF010EDF6E3A
:10100800010E00D0120000010001A5C0AAF00001E5
:101018000001AB6B000120EE34F00001A351D9268A
:101028000001A451DA22DF5000010001AC6F000179
:101038000001AC510D0DF35000010001A325000182
:101048000001AD6FF45000010001A4210001AE6F52
:10105800ADC0D9FFAEC0DAFFDF50D8B401D001D09F
:1010680003D0FF0E52D051D0000120EE01F0000154
:10107800AD51D9260001AE51DA220001A5C0DFFF2B
:10108800000120EE02F00001AD51D9260001AE5159
:10109800DA220001A6C0DFFF030E00010001AD2522
:1010A80000010001996F000E00010001AE2100014E
:1010B8009A6FA7C09BF0A8C09CF0AAC09DF0ABC0D7
:1010C8009EF00001DCEC0DF0000120EE34F0000190
:1010D800A351D9260001A451DA22000110EE34F000
:1010E8000001A351E1260001A451E222E7500001CA
:1010F800A96F0001A929030BDF6EADC0D9FFAEC0EF
:10110800DAFF010EDF6E010E00D01200010185EC3E
:101118000DF001010101D3510101D211D8A401D070
:1011280001D002D062D061D08A860101D46F010E4D
:1011380000010001626F0101D45100D00101010ECC
:1011480001010101CF6F0101980E0101CE6F01016C
:1011580099EC0EF00009D8B401D001D00BD00101F0
:10116800D46F000E00010001626F0101D4518A960C
:101178003CD03BD00001000E01010101CF6F0001FE
:10118800630E0101CE6F010199EC0EF00009D8B48D
:1011980001D001D00BD00101D46F000E0001000175
:1011A800626F0101D4518A9620D01FD00101D46FFB
:1011B8000A0E01010101CE6F0101D4510101F9ECC0
:1011C8000FF08AA601D002D0010E01D0000E010155
:1011D800D46F0101D447D447D4478A500101D419A8
:1011E800F70BD4198A6EAAD7A9D71200000120EEEE
:1011F8000BF000016051D92600016151DA22010E7D
:10120800DF6E000120EE0AF000016051D9260001CE
:101218006151DA22000EDF6E000100019951D8B445
:1012280001D001D043D0C7AA01D001D021D00001FC
:1012380020EE0CF000016051D92600016151DA223C
:10124800050EDF6E000120EE0EF000016051D92678
:1012580000016151DA22DF2A000120EE0DF00001C1
:101268006051D92600016151DA22050EDF6E2AD0BD
:10127800C7A401D001D00CD0000120EE0CF0000171
:101288006051D92600016151DA22080EDF6E1AD0AA
:10129800000120EE0CF000016051D92600016151D7
:1012A800DA22070EDF6E0ED00DD00CD0000120EE32
:1012B8000CF000016051D92600016151DA22060EB6
:1012C800DF6E00D012009EAA01D001D041D020EEDE
:1012D80004F03050D9263150DA22DF501B6E1B50F3
:1012E800010DF3503024D96EF4503120DA6EB5EC8C
:1012F8000EF0DF6E20EE04F03050D9263150DA229D
:10130800DF2A20EE04F03050D9263150DA22040EBC
:10131800DF6201D001D01CD020EE04F03050D92675
:101328003150DA22DF50176E1B6E1F0E186E1B50DD
:1013380030C019F031C01AF0D0EC0FF020EE04F0F4
:101348003050D9263150DA22000EDF6E01D000D09D
:1013580032A601D001D011D0AB98AB881B6E000E1D
:10136800176E1B501C6E1E0E186E1C50000E1A6E47
:10137800000E196ED0EC0FF000D01200000EAC6E0B
:10138800000EAB6E01010101CEA101D001D001D048
:10139800AC8801010101CEA301D001D002D0AC8CF0
:1013A800AB8C01010101CEA501D001D001D0AC8EDA
:1013B80001010101CEA701D001D002D0AB8801D034
:1013C800AB8A01010101CEA901D001D001D0AC84C2
:1013D8009E9801010101CEAB01D001D001D0AB86AE
:1013E80001010101CEAD01D001D002D09D8A01D00A
:1013F8009D9A9E9A01010101CEAF01D001D002D081
:101408009D8801D09D98CFC1AFFF01010101D05146
:10141800B06EAC8AAB8E949C948EACA801D001D0EF
:1014280006D0ACBE01D001D002D0948C00D01200FE
:101438000DC012F0136A20EE34F00B50D9260C5070
:10144800DA22DF50146E14500D0DF3500B24156E74
:10145800F4500C20166E15C0D9FF16C0DAFFDF5005
:10146800D8B401D001D003D0FF0E3AD039D020EE45
:1014780001F01550D9261650DA220DC0DFFF20EEF4
:1014880002F01550D9261650DA220EC0DFFF030EDF
:101498001524016E000E1620026E0FC003F010C056
:1014A80004F012C005F013C006F056EC0EF020EE62
:1014B80034F00B50D9260C50DA2210EE34F00B50D1
:1014C800E1260C50E222E750116E1128030BDF6E63
:1014D80015C0D9FF16C0DAFF010EDF6E010E00D06D
:1014E800120094869488D4C1C8FF000EC76E000EFF
:1014F800C66E000EC56E0E0EC612C78E94869488F0
:10150800C580C68A000E01010101D66F000E0101D7
:10151800D56F01010101D651800A800F040ED8B49D
:10152800D55DD8A001D001D002D02ED02DD0D5C104
:10153800CEF1D6C1CFF1000E01010101D16F0B0E22
:101548000101D06F0101F3EC0CF00101000E010163
:101558000101CE25D96E0101010E01010101CF2142
:10156800DA6E000EDF6E01010101D54BD62B0101A9
:101578000101D651800A800F040ED8B4D55DD8A0D9
:1015880001D001D0D4D700D0120001010101D151FE
:10159800D011D8B401D001D043D00101D26F010ECF
:1015A80001010101D36F0101D2510AD001010101EA
:1015B8000101D890D037D13701010101D32B00D0D8
:1015C80001010101D1AF01D001D0F0D701D000D085
:1015D80001010101D05101010101CE5D01010101AB
:1015E800D15101010101CF59D8A001D001D00DD0AE
:1015F80001010101D05101010101CE5F0101010189
:10160800D15101010101CF5B00D0010101010101AC
:10161800D890D133D03301010101D32FD9D700D0CD
:10162800CEC1CEF1CFC1CFF1120000010001626737
:1016380001D001D002D045D044D0000156EC0DF0C5
:10164800000100019C5100019B11D8B401D001D0C8
:1016580002D037D036D0000103EC10F000010001B1
:101668009A5100019911D8A401D001D002D029D0F3
:1016780028D00101010E000100019A6F0101980EA6
:101688000001996F0001D1EC0EF00009D8B401D027
:1016980001D002D016D015D00001000E00010001C3
:1016A8009A6F0001630E0001996F0001D1EC0EF0F2
:1016B8000009D8B401D001D002D003D002D03AEC4E
:1016C80010F012000600EACFC7F0E1CFC8F0E2CF71
:1016D800C9F0D9CFCAF0DACFCBF0F3CFCCF0F4CF42
:1016E800CDF0F6CFCEF0F7CFCFF0F8CFD0F0F5CFE2
:1016F800D1F09EA601D001D004D09E9663EC00F0F4
:1017080000D0F2A401D001D004D0F294EDEC0EF098
:1017180000D019EC0BF0D1C0F5FFD0C0F8FFCFC056
:10172800F7FFCEC0F6FFCDC0F4FFCCC0F3FFCBC0AF
:10173800DAFFCAC0D9FFC9C0E2FFC8C0E1FFC7C00D
:10174800EAFFC6C0E9FFC5C0FBFFC4C0FAFF11002D
:101758000101EF6F0A0E01010101E66F0101EF516E
:1017680001010101F1C1E7F101010101E86B0F0E6F
:1017780000010001602501010101E96F000E00016F
:10178800000161210101EA6F010136EC0FF001014E
:10179800F06F000120EE19F000016051D926000118
:1017A8006151DA22F0C1DFFF000120EE1AF00001DA
:1017B8006051D92600016151DA22010EDF6E000165
:1017C80020EE0FF000016051D92600016151DA22A4
:1017D800DF50C96EC68812000001B66F0A0E0001FC
:1017E8000001B16F0001B65100010001B8C0B2F0AC
:1017F80000010001B36B0F0E00010001602500011C
:101808000001B46F000E0001000161210001B56FF5
:1018180000014EEC0FF00001B76F000120EE19F047
:1018280000016051D92600016151DA22B7C0DFFFFB
:10183800000120EE1AF000016051D9260001615123
:10184800DA22010EDF6E000120EE0FF00001605178
:10185800D92600016151DA22DF50C96EC68812000C
:10186800E8C1D9FFE9C1DAFFDE2A000EDD22E8C1AE
:10187800D9FFE9C1DAFF0101DECFCEF10101DDCFE9
:10188800CFF1000E01010101D16F0A0E0101D06FE5
:101898000101C9EC0AF001010101CE51090A010157
:1018A800CF11D8A401D001D01DD00101F06F020ED4
:1018B80001010101E46F0101F0510101F16F140E02
:1018C80001010101E56F0101F151E8C1E6F1E9C14A
:1018D800E7F101017CEC0FF001010101F26F02D088
:1018E80001D000D01200010120EE34F00101CE51E8
:1018F800D9260101CF51DA22000EDF6E010120EE58
:1019080035F00101CE51D9260101CF51DA22000E5E
:10191800DF6E0101D06F000E01010101D16F0101DD
:10192800D051030E01010101D16501D001D002D0CF
:101938001CD01BD001010101D1510D0DF350010143
:101948000101CE25D96EF45001010101CF21DA6ED3
:10195800000EDF6E01010101D12B030E010101010F
:10196800D16501D001D0E6D700D012000101D26FB5
:10197800000E00010001626F0101D2510001000E4A
:1019880001010101CF6F0001630E0101CE6F01015A
:1019980077EC0CF00101010E01010101CF6F01018B
:1019A800980E0101CE6F010177EC0CF00101010ED8
:1019B80001010101CF6F0101620E0101CE6F01012A
:1019C80077EC0CF00101010E01010101CF6F01015B
:1019D8002C0E0101CE6F010177EC0CF01200000E05
:1019E80001010101D36F000E0101D26F00D0010186
:1019F8000101CEA101D001D00DD001010101D051CA
:101A080001010101D22701010101D15101010101A7
:101A1800D32300D0010101010101D890D037D1377B
:101A2800010101010101D890CF33CE330101010139
:101A3800CF51CE11D8A401D001D0D9D7D2C1CEF17F
:101A4800D3C1CFF11200F2AC01D001D00AD0000E00
:101A580001010101D16F000E0101D06F22D021D008
:101A680020D00101EFEC0FF001010101CF5101017C
:101A7800CE11D8B401D001D00AD0000E0101010165
:101A8800D16F000E0101D06F0CD00BD00AD0000E20
:101A980001010101D16F010E0101D06F02D001D007
:101AA80000D01200F2AC01D001D00AD0000E000123
:101AB80000019C6F000E00019B6F22D021D020D026
:101AC800000103EC10F0000100019A510001991186
:101AD800D8B401D001D00AD0000E000100019C6FDB
:101AE800000E00019B6F0CD00BD00AD0000E000135
:101AF80000019C6F010E00019B6F02D001D000D045
:101B08001200010127EC0DF001010101D151010181
:101B1800D011D8A401D001D016D00101EFEC0FF0FC
:101B280001010101CF510101CE11D8A401D001D08A
:101B38000AD0000E01010101D36F010E0101D26F1D
:101B48000BD00AD009D0000E01010101D36F000E9D
:101B58000101D26F01D000D01200D0C1D6F1D1C19D
:101B6800D7F1CEC1D4F1CFC1D5F113D0D6C1D9FFA9
:101B7800D7C1DAFFD4C1E1FFD5C1E2FFDFCFE7FF6C
:101B880001010101D64BD72B01010101D44BD52B03
:101B980000D001010101D207D8A0D3070101D22941
:101BA800D8B4D329D8A401D001D0E0D700D01200EE
:101BB8009BC0A1F09CC0A2F099C09FF09AC0A0F071
:101BC80013D0A1C0D9FFA2C0DAFF9FC0E1FFA0C017
:101BD800E2FFDFCFE7FF00010001A14BA22B0001CC
:101BE80000019F4BA02B00D0000100019D07D8A049
:101BF8009E0700019D29D8B49E29D8A401D001D000
:101C0800E0D700D012008AA201D002D0010E01D084
:101C1800000E1B6E1B468A501B18FD0B1B188A6E84
:101C280016EC10F001C01DF002C01EF01B6E000E75
:101C3800176E1B501C6E0B0E186E1C50000E1A6E81
:101C4800000E196ED0EC0FF0000E026E000E016E41
:101C58001FEC10F0120001010101D0511E0AD11130
:101C6800D8A401D001D002D01CD01BD001010101A1
:101C7800D0511F0AD111D8A401D001D012D001012E
:101C88000101D25101010101D425D96E01010101DF
:101C9800D35101010101D521DA6E000EDF6E01D0AA
:101CA80000D0120003C009F004C00AF001C007F018
:101CB80002C008F00FD009C0D9FF0AC0DAFF07C078
:101CC800E1FF08C0E2FFDFCFE7FF094A0A2A074A17
:101CD800082A00D00506D8A006060528D8B4062884
:101CE800D8A401D001D0E7D700D01200010101012A
:101CF800CE517E0BCD6E01010101CEAD01D001D0D8
:101D080002D0CD8E02D0CD9E00D0000ECF6E000E38
:101D1800CE6E9E9001010101CEAF01D001D002D05C
:101D28009D8001D09D90CD801200010120EE35F0FC
:101D38000101CE51D9260101CF51DA22DF5001012C
:101D4800D06F0101D0510D0DF35001010101CE25D5
:101D5800D96EF45001010101CF21DA6EDF5000D0B5
:101D68001200F20E3216ABAC01D001D007D032907F
:101D7800ABA001D001D002D0328000D0ABA401D0FA
:101D880001D001D03284ABA201D001D001D032867B
:101D9800AECF01F0015000D01200000120EE35F066
:101DA80000019951D92600019A51DA22DF50000129
:101DB8009B6F00019B510D0DF35000010001992507
:101DC800D96EF450000100019A21DA6EDF5000D07C
:101DD80012008AA001D002D0010E01D0000E00012D
:101DE8009D6F8A5000019D19FE0B9D198A6E000E89
:101DF800000100019A6F000E0001996F000128ECA4
:101E080010F012000101010E01010101D96F010159
:101E1800980E0101D86FE6C1DAF1E7C1DBF1E8C13C
:101E2800DCF1E9C1DDF1EAC1DEF1010144EC06F0C3
:101E380000D012000001000E01010101D96F00015C
:101E4800630E0101D86FE6C1DAF1E7C1DBF1E8C141
:101E5800DCF1E9C1DDF1EAC1DEF1010144EC06F093
:101E680000D012000101010E01010101D96F010129
:101E7800620E0101D86FE6C1DAF1E7C1DBF1E8C112
:101E8800DCF1E9C1DDF1EAC1DEF1010144EC06F063
:101E980000D012000101010E00010001A46F010130
:101EA800620E0001A36FB1C0A5F0B2C0A6F0B3C026
:101EB800A7F0B4C0A8F0B5C0A9F00001E4EC06F0A2
:101EC80000D012000101010E01010101D96F0101C9
:101ED800620E0101D86FE4C1DAF1E5C1DBF1E6C1B8
:101EE800DCF1E7C1DDF1010184EC07F000D012005C
:101EF8000101010E01010101D96F01012C0E01013F
:101F0800D86FE4C1DAF1E5C1DBF1E6C1DCF1E7C184
:101F1800DDF1010184EC07F000D012000101010E8F
:101F280000010001A46F0101980E0001A36FAFC06A
:101F3800A5F0B0C0A6F0B1C0A7F0B2C0A8F00001EB
:101F480007EC08F000D0120001010101CE517F0B0F
:101F5800D56E000ED76E000ED66EF2940101010107
:101F6800CEAF01D001D002D0F28A01D0F29AD58E3C
:101F7800120001EE00F0CE0EEE6AE806FDE100EE7A
:101F880060F0390EEE6AE806FDE1336A326A000E47
:101F9800F86E000130EF04F00001000E0C6E000135
:101FA800630E0B6E17C00DF018C00EF019C00FF0BD
:101FB8001AC010F01CEC0AF000D01200CEC130F0AC
:101FC800CFC131F020EE04F03050D9263150DA225A
:101FD800000EDF6E1200000EF2AE010E01010101CB
:101FE800CE6F0101CF6B00D01200FA0E00F0E82E80
:101FF800FDD701010101CE2FF8D700D01200000E45
:10200800F2AE010E00010001996F00019A6B00D039
:102018001200CEC1D9FFCFC1DAFF000EDE6E000E6E
:10202800DD6E1200CECF03F0CFCF04F003C001F075
:1020380004C002F0120001C003F002C004F004C0A2
:10204800CFFF03C0CEFF120099C09BF09AC09CF04E
:102058009CC0D7FF9BC0D6FF1200D4C1D6F1D5C112
:10206800D7F11200D08EF28EF28C1200D38E0300BC
:02207800120054
:020000040020DA
:08000000FFFFFFFFFFFFFFFF00
:020000040030CA
:0E000000FF08191EFF8080FF0FC00FE00F40A9
:00000001FF
